{
  "_format": "hh-sol-artifact-1",
  "contractName": "Controller",
  "sourceName": "contracts/Controller.sol",
  "abi": [
    {
      "inputs": [
        {
          "internalType": "uint256",
          "name": "_feePercentage",
          "type": "uint256"
        },
        {
          "internalType": "address",
          "name": "_proxy",
          "type": "address"
        },
        {
          "internalType": "address[]",
          "name": "_paymentTokens",
          "type": "address[]"
        }
      ],
      "stateMutability": "nonpayable",
      "type": "constructor"
    },
    {
      "anonymous": false,
      "inputs": [
        {
          "indexed": true,
          "internalType": "address",
          "name": "owner",
          "type": "address"
        },
        {
          "indexed": false,
          "internalType": "string",
          "name": "ensDomain",
          "type": "string"
        }
      ],
      "name": "OpenRegister",
      "type": "event"
    },
    {
      "anonymous": false,
      "inputs": [
        {
          "indexed": true,
          "internalType": "address",
          "name": "previousOwner",
          "type": "address"
        },
        {
          "indexed": true,
          "internalType": "address",
          "name": "newOwner",
          "type": "address"
        }
      ],
      "name": "OwnershipTransferred",
      "type": "event"
    },
    {
      "anonymous": false,
      "inputs": [
        {
          "indexed": true,
          "internalType": "address",
          "name": "owner",
          "type": "address"
        },
        {
          "indexed": false,
          "internalType": "string",
          "name": "domain",
          "type": "string"
        }
      ],
      "name": "RegisterSubdomain",
      "type": "event"
    },
    {
      "inputs": [
        {
          "internalType": "address",
          "name": "",
          "type": "address"
        }
      ],
      "name": "AvailablePayments",
      "outputs": [
        {
          "internalType": "bool",
          "name": "",
          "type": "bool"
        }
      ],
      "stateMutability": "view",
      "type": "function"
    },
    {
      "inputs": [
        {
          "internalType": "bytes32",
          "name": "",
          "type": "bytes32"
        }
      ],
      "name": "NodeMeta",
      "outputs": [
        {
          "internalType": "enum Controller.DOMAIN_STATUS",
          "name": "status",
          "type": "uint8"
        },
        {
          "internalType": "enum Controller.DOMAIN_VERSION",
          "name": "version",
          "type": "uint8"
        },
        {
          "internalType": "string",
          "name": "ensDomain",
          "type": "string"
        },
        {
          "internalType": "address",
          "name": "owner",
          "type": "address"
        },
        {
          "internalType": "address",
          "name": "beneficiary",
          "type": "address"
        },
        {
          "internalType": "uint256",
          "name": "tokenId",
          "type": "uint256"
        }
      ],
      "stateMutability": "view",
      "type": "function"
    },
    {
      "inputs": [
        {
          "internalType": "bytes32",
          "name": "",
          "type": "bytes32"
        }
      ],
      "name": "NodePricing",
      "outputs": [
        {
          "internalType": "enum Controller.PRICING_MODE",
          "name": "mode",
          "type": "uint8"
        },
        {
          "internalType": "address",
          "name": "token",
          "type": "address"
        }
      ],
      "stateMutability": "view",
      "type": "function"
    },
    {
      "inputs": [],
      "name": "feePercentage",
      "outputs": [
        {
          "internalType": "uint256",
          "name": "",
          "type": "uint256"
        }
      ],
      "stateMutability": "view",
      "type": "function"
    },
    {
      "inputs": [
        {
          "internalType": "bytes32[]",
          "name": "pricingHash",
          "type": "bytes32[]"
        }
      ],
      "name": "getPricing",
      "outputs": [
        {
          "components": [
            {
              "internalType": "enum Controller.PRICING_MODE",
              "name": "mode",
              "type": "uint8"
            },
            {
              "internalType": "uint256[]",
              "name": "prices",
              "type": "uint256[]"
            },
            {
              "internalType": "address",
              "name": "token",
              "type": "address"
            }
          ],
          "internalType": "struct Controller.Pricing[]",
          "name": "",
          "type": "tuple[]"
        }
      ],
      "stateMutability": "view",
      "type": "function"
    },
    {
      "inputs": [
        {
          "internalType": "string",
          "name": "label",
          "type": "string"
        },
        {
          "internalType": "address",
          "name": "beneficiary",
          "type": "address"
        },
        {
          "components": [
            {
              "internalType": "enum Controller.PRICING_MODE",
              "name": "mode",
              "type": "uint8"
            },
            {
              "internalType": "uint256[]",
              "name": "prices",
              "type": "uint256[]"
            },
            {
              "internalType": "address",
              "name": "token",
              "type": "address"
            }
          ],
          "internalType": "struct Controller.Pricing[]",
          "name": "pricing",
          "type": "tuple[]"
        }
      ],
      "name": "openRegister",
      "outputs": [],
      "stateMutability": "nonpayable",
      "type": "function"
    },
    {
      "inputs": [],
      "name": "owner",
      "outputs": [
        {
          "internalType": "address",
          "name": "",
          "type": "address"
        }
      ],
      "stateMutability": "view",
      "type": "function"
    },
    {
      "inputs": [],
      "name": "proxy",
      "outputs": [
        {
          "internalType": "contract IProxy",
          "name": "",
          "type": "address"
        }
      ],
      "stateMutability": "view",
      "type": "function"
    },
    {
      "inputs": [
        {
          "internalType": "string",
          "name": "domain",
          "type": "string"
        },
        {
          "internalType": "string",
          "name": "subdomain",
          "type": "string"
        },
        {
          "internalType": "address",
          "name": "owner",
          "type": "address"
        },
        {
          "internalType": "address",
          "name": "resolver",
          "type": "address"
        },
        {
          "internalType": "uint64",
          "name": "ttl",
          "type": "uint64"
        },
        {
          "internalType": "address",
          "name": "token",
          "type": "address"
        },
        {
          "internalType": "uint256",
          "name": "amount",
          "type": "uint256"
        }
      ],
      "name": "registerSubdomain",
      "outputs": [],
      "stateMutability": "nonpayable",
      "type": "function"
    },
    {
      "inputs": [],
      "name": "renounceOwnership",
      "outputs": [],
      "stateMutability": "nonpayable",
      "type": "function"
    },
    {
      "inputs": [
        {
          "internalType": "bytes32",
          "name": "node",
          "type": "bytes32"
        },
        {
          "internalType": "address",
          "name": "beneficiary",
          "type": "address"
        }
      ],
      "name": "setBeneficiary",
      "outputs": [],
      "stateMutability": "nonpayable",
      "type": "function"
    },
    {
      "inputs": [
        {
          "internalType": "bytes32",
          "name": "node",
          "type": "bytes32"
        },
        {
          "internalType": "enum Controller.DOMAIN_STATUS",
          "name": "domainStatus",
          "type": "uint8"
        }
      ],
      "name": "setDomainStatus",
      "outputs": [],
      "stateMutability": "nonpayable",
      "type": "function"
    },
    {
      "inputs": [
        {
          "internalType": "bytes32",
          "name": "node",
          "type": "bytes32"
        },
        {
          "internalType": "enum Controller.DOMAIN_VERSION",
          "name": "domainVersion",
          "type": "uint8"
        }
      ],
      "name": "setDomainVersion",
      "outputs": [],
      "stateMutability": "nonpayable",
      "type": "function"
    },
    {
      "inputs": [
        {
          "internalType": "bytes32",
          "name": "node",
          "type": "bytes32"
        },
        {
          "components": [
            {
              "internalType": "enum Controller.PRICING_MODE",
              "name": "mode",
              "type": "uint8"
            },
            {
              "internalType": "uint256[]",
              "name": "prices",
              "type": "uint256[]"
            },
            {
              "internalType": "address",
              "name": "token",
              "type": "address"
            }
          ],
          "internalType": "struct Controller.Pricing[]",
          "name": "pricing",
          "type": "tuple[]"
        }
      ],
      "name": "setPricing",
      "outputs": [],
      "stateMutability": "nonpayable",
      "type": "function"
    },
    {
      "inputs": [
        {
          "internalType": "address",
          "name": "newOwner",
          "type": "address"
        }
      ],
      "name": "transferOwnership",
      "outputs": [],
      "stateMutability": "nonpayable",
      "type": "function"
    },
    {
      "inputs": [
        {
          "internalType": "uint256",
          "name": "_feePercentage",
          "type": "uint256"
        }
      ],
      "name": "updateFeePercentage",
      "outputs": [],
      "stateMutability": "nonpayable",
      "type": "function"
    },
    {
      "inputs": [
        {
          "internalType": "address",
          "name": "_proxyAddress",
          "type": "address"
        }
      ],
      "name": "updateProxyAddress",
      "outputs": [],
      "stateMutability": "nonpayable",
      "type": "function"
    }
  ],
  "bytecode": "0x60806040523480156200001157600080fd5b506040516200285c3803806200285c83398101604081905262000034916200015b565b6200003f33620000d8565b6001839055600280546001600160a01b0319166001600160a01b03841617905560005b8151811015620000ce576001600560008484815181106200008757620000876200024c565b6020908102919091018101516001600160a01b03168252810191909152604001600020805460ff191691151591909117905580620000c58162000262565b91505062000062565b505050506200028a565b600080546001600160a01b038381166001600160a01b0319831681178455604051919092169283917f8be0079c531659141344cd1fd0a4f28419497f9722a3daafe3b4186f6b6457e09190a35050565b80516001600160a01b03811681146200014057600080fd5b919050565b634e487b7160e01b600052604160045260246000fd5b6000806000606084860312156200017157600080fd5b8351925060206200018481860162000128565b60408601519093506001600160401b0380821115620001a257600080fd5b818701915087601f830112620001b757600080fd5b815181811115620001cc57620001cc62000145565b8060051b604051601f19603f83011681018181108582111715620001f457620001f462000145565b60405291825284820192508381018501918a8311156200021357600080fd5b938501935b828510156200023c576200022c8562000128565b8452938501939285019262000218565b8096505050505050509250925092565b634e487b7160e01b600052603260045260246000fd5b6000600182016200028357634e487b7160e01b600052601160045260246000fd5b5060010190565b6125c2806200029a6000396000f3fe608060405234801561001057600080fd5b506004361061010b5760003560e01c806384ef433c116100a2578063aa6f197911610071578063aa6f197914610276578063d278a62a14610289578063eac32a8e1461029c578063ec556889146102af578063f2fde38b146102c257600080fd5b806384ef433c146101e35780638da5cb5b146101f6578063a001ecdd1461021b578063a34c9e561461023257600080fd5b80636cad3fb0116100de5780636cad3fb0146101835780636dad94a014610196578063715018a6146101bb57806383f6d5ba146101c357600080fd5b80631f35c9c014610110578063489182e61461012557806355ccf393146101385780635e985c151461014b575b600080fd5b61012361011e366004611c27565b6102d5565b005b610123610133366004611ca3565b6105ee565b610123610146366004611cd3565b61079b565b61016e610159366004611cff565b60056020526000908152604090205460ff1681565b60405190151581526020015b60405180910390f35b610123610191366004611d21565b6108b5565b6101a96101a4366004611d21565b6108c2565b60405161017a96959493929190611db0565b610123610993565b6101d66101d1366004611e0d565b6109a7565b60405161017a9190611e81565b6101236101f1366004611f40565b610b37565b6000546001600160a01b03165b6040516001600160a01b03909116815260200161017a565b61022460015481565b60405190815260200161017a565b610268610240366004611d21565b6004602052600090815260409020805460029091015460ff909116906001600160a01b031682565b60405161017a929190611f69565b610123610284366004611f8e565b610cd1565b610123610297366004611feb565b610dda565b6101236102aa366004611cff565b6111e1565b600254610203906001600160a01b031681565b6101236102d0366004611cff565b61120b565b6102de81611284565b60025460405163a705a5d760e01b81526000916001600160a01b03169063a705a5d79061031190889088906004016120f2565b602060405180830381865afa15801561032e573d6000803e3d6000fd5b505050506040513d601f19601f820116820180604052508101906103529190612121565b60025460405163fd0cd0d960e01b8152600481018390529192506000916001600160a01b039091169063fd0cd0d990602401602060405180830381865afa1580156103a1573d6000803e3d6000fd5b505050506040513d601f19601f820116820180604052508101906103c5919061213a565b90506000816103ec5786866040516103de92919061215c565b6040519081900390206103ee565b825b600254604051635a376b6d60e11b815233600482015284151560248201529192506001600160a01b03169063b46ed6da9060440160006040518083038186803b15801561043a57600080fd5b505afa15801561044e573d6000803e3d6000fd5b5050600254604051633df5d22b60e01b81526001600160a01b039091169250633df5d22b91506104869084903390879060040161216c565b602060405180830381865afa1580156104a3573d6000803e3d6000fd5b505050506040513d601f19601f820116820180604052508101906104c7919061213a565b6104ec5760405162461bcd60e51b81526004016104e39061218d565b60405180910390fd5b6104f68385611477565b6000838152600360205260409020805460ff191660011781558261051b57600061051e565b60015b8154829061ff00191661010083600181111561053c5761053c611d3a565b021790555087876040516020016105549291906121c4565b604051602081830303815290604052816001019081610573919061225d565b50600281018054336001600160a01b031991821681179092556003830180549091166001600160a01b038916179055600482018390556040517f1605c9c81eebc7df29fa9c7c19bbb5586f4706e9d3eaecbd8d983217fd1483b1906105dc90600185019061231c565b60405180910390a25050505050505050565b600081600181111561060257610602611d3a565b116106485760405162461bcd60e51b815260206004820152601660248201527524b73b30b634b2103237b6b0b4b7103b32b939b4b7b760511b60448201526064016104e3565b600082815260036020526040812090815460ff16600281111561066d5761066d611d3a565b0361068a5760405162461bcd60e51b81526004016104e3906123a7565b60025460048201546001600160a01b0390911690633df5d22b903360018554610100900460ff1660018111156106c2576106c2611d3a565b146040518463ffffffff1660e01b81526004016106e19392919061216c565b602060405180830381865afa1580156106fe573d6000803e3d6000fd5b505050506040513d601f19601f82011682018060405250810190610722919061213a565b61073e5760405162461bcd60e51b81526004016104e39061218d565b81600181111561075057610750611d3a565b8154610100900460ff16600181111561076b5761076b611d3a565b146107965780548290829061ff00191661010083600181111561079057610790611d3a565b02179055505b505050565b600082815260036020526040812090815460ff1660028111156107c0576107c0611d3a565b036107dd5760405162461bcd60e51b81526004016104e3906123a7565b60025460048201546001600160a01b0390911690633df5d22b903360018554610100900460ff16600181111561081557610815611d3a565b146040518463ffffffff1660e01b81526004016108349392919061216c565b602060405180830381865afa158015610851573d6000803e3d6000fd5b505050506040513d601f19601f82011682018060405250810190610875919061213a565b6108915760405162461bcd60e51b81526004016104e39061218d565b60030180546001600160a01b0319166001600160a01b039290921691909117905550565b6108bd61158c565b600155565b6003602052600090815260409020805460018201805460ff80841694610100909404169291906108f1906121dd565b80601f016020809104026020016040519081016040528092919081815260200182805461091d906121dd565b801561096a5780601f1061093f5761010080835404028352916020019161096a565b820191906000526020600020905b81548152906001019060200180831161094d57829003601f168201915b505050506002830154600384015460049094015492936001600160a01b03918216939116915086565b61099b61158c565b6109a560006115e6565b565b60606000826001600160401b038111156109c3576109c3611a48565b604051908082528060200260200182016040528015610a1957816020015b610a066040805160608101909152806000815260606020820152600060409091015290565b8152602001906001900390816109e15790505b50905060005b83811015610b2d5760046000868684818110610a3d57610a3d6123cf565b6020908102929092013583525081019190915260409081016000208151606081019092528054829060ff166001811115610a7957610a79611d3a565b6001811115610a8a57610a8a611d3a565b815260200160018201805480602002602001604051908101604052809291908181526020018280548015610add57602002820191906000526020600020905b815481526020019060010190808311610ac9575b5050509183525050600291909101546001600160a01b03166020909101528251839083908110610b0f57610b0f6123cf565b60200260200101819052508080610b25906123fb565b915050610a1f565b5090505b92915050565b6000816002811115610b4b57610b4b611d3a565b11610b905760405162461bcd60e51b8152602060048201526015602482015274496e76616c696420646f6d61696e2073746174757360581b60448201526064016104e3565b600082815260036020526040812090815460ff166002811115610bb557610bb5611d3a565b03610bd25760405162461bcd60e51b81526004016104e3906123a7565b60025460048201546001600160a01b0390911690633df5d22b903360018554610100900460ff166001811115610c0a57610c0a611d3a565b146040518463ffffffff1660e01b8152600401610c299392919061216c565b602060405180830381865afa158015610c46573d6000803e3d6000fd5b505050506040513d601f19601f82011682018060405250810190610c6a919061213a565b610c865760405162461bcd60e51b81526004016104e39061218d565b816002811115610c9857610c98611d3a565b815460ff166002811115610cae57610cae611d3a565b146107965780548290829060ff1916600183600281111561079057610790611d3a565b610cda81611284565b600082815260036020526040812090815460ff166002811115610cff57610cff611d3a565b03610d1c5760405162461bcd60e51b81526004016104e3906123a7565b60025460048201546001600160a01b0390911690633df5d22b903360018554610100900460ff166001811115610d5457610d54611d3a565b146040518463ffffffff1660e01b8152600401610d739392919061216c565b602060405180830381865afa158015610d90573d6000803e3d6000fd5b505050506040513d601f19601f82011682018060405250810190610db4919061213a565b610dd05760405162461bcd60e51b81526004016104e39061218d565b6107968383611477565b6000610de587611636565b90506003811015610e385760405162461bcd60e51b815260206004820152601860248201527f496e76616c696420737562646f6d61696e206c656e677468000000000000000060448201526064016104e3565b60025460405163a705a5d760e01b81526000916001600160a01b03169063a705a5d790610e6b908d908d906004016120f2565b602060405180830381865afa158015610e88573d6000803e3d6000fd5b505050506040513d601f19601f82011682018060405250810190610eac9190612121565b60008181526003602052604090209091506001815460ff166002811115610ed557610ed5611d3a565b14610f145760405162461bcd60e51b815260206004820152600f60248201526e149959da5cdd195c8818db1bdcd959608a1b60448201526064016104e3565b610f2082848787611739565b6001548590600090606490610f359088612414565b610f3f9190612441565b905085156110e8576040516323b872dd60e01b8152336004820152306024820152604481018290526001600160a01b038316906323b872dd906064016020604051808303816000875af1158015610f9a573d6000803e3d6000fd5b505050506040513d601f19601f82011682018060405250810190610fbe919061213a565b6110005760405162461bcd60e51b8152602060048201526013602482015272151c985b9cd9995c881999594819985a5b1959606a1b60448201526064016104e3565b60038301546001600160a01b03808416916323b872dd91339116611024858b612455565b6040516001600160e01b031960e086901b1681526001600160a01b03938416600482015292909116602483015260448201526064016020604051808303816000875af1158015611078573d6000803e3d6000fd5b505050506040513d601f19601f8201168201806040525081019061109c919061213a565b6110e85760405162461bcd60e51b815260206004820152601760248201527f5472616e73666572207061796d656e74206661696c656400000000000000000060448201526064016104e3565b6002546001600160a01b031663e546387b858d8d8d8d60018a54610100900460ff16600181111561111b5761111b611d3a565b146040518763ffffffff1660e01b815260040161113d96959493929190612468565b600060405180830381600087803b15801561115757600080fd5b505af115801561116b573d6000803e3d6000fd5b50505050896001600160a01b03167fc340f6265434ca2a4cb3ff671817af411cd92344d10a83ecc1d4d9400e35a21b8c856001016040516020016111b09291906124ba565b60408051601f19818403018152908290526111ca91612552565b60405180910390a250505050505050505050505050565b6111e961158c565b600280546001600160a01b0319166001600160a01b0392909216919091179055565b61121361158c565b6001600160a01b0381166112785760405162461bcd60e51b815260206004820152602660248201527f4f776e61626c653a206e6577206f776e657220697320746865207a65726f206160448201526564647265737360d01b60648201526084016104e3565b611281816115e6565b50565b60008151116112cb5760405162461bcd60e51b8152602060048201526013602482015272556e7370656369666965642070726963696e6760681b60448201526064016104e3565b60005b815181101561147357600560008383815181106112ed576112ed6123cf565b6020908102919091018101516040908101516001600160a01b0316835290820192909252016000205460ff1615156001146113625760405162461bcd60e51b815260206004820152601560248201527424b73b30b634b2103830bcb6b2b73a103a37b5b2b760591b60448201526064016104e3565b6000828281518110611376576113766123cf565b602002602001015160000151600181111561139357611393611d3a565b1480156113bf57508181815181106113ad576113ad6123cf565b60200260200101516020015151600114155b80611422575060018282815181106113d9576113d96123cf565b60200260200101516000015160018111156113f6576113f6611d3a565b1480156114225750818181518110611410576114106123cf565b60200260200101516020015151600314155b156114615760405162461bcd60e51b815260206004820152600f60248201526e496e76616c69642070726963696e6760881b60448201526064016104e3565b8061146b816123fb565b9150506112ce565b5050565b60005b815181101561079657600083838381518110611498576114986123cf565b6020026020010151604001516040516020016114d092919091825260601b6bffffffffffffffffffffffff1916602082015260340190565b6040516020818303038152906040528051906020012090508282815181106114fa576114fa6123cf565b60209081029190910181015160008381526004909252604090912081518154829060ff19166001838181111561153257611532611d3a565b0217905550602082810151805161154f9260018501920190611984565b5060409190910151600290910180546001600160a01b0319166001600160a01b039092169190911790555080611584816123fb565b91505061147a565b6000546001600160a01b031633146109a55760405162461bcd60e51b815260206004820181905260248201527f4f776e61626c653a2063616c6c6572206973206e6f7420746865206f776e657260448201526064016104e3565b600080546001600160a01b038381166001600160a01b0319831681178455604051919092169283917f8be0079c531659141344cd1fd0a4f28419497f9722a3daafe3b4186f6b6457e09190a35050565b8051600090819081905b8082101561173057600085838151811061165c5761165c6123cf565b01602001516001600160f81b0319169050600160ff1b81101561168b57611684600184612565565b925061171d565b600760fd1b6001600160f81b0319821610156116ac57611684600284612565565b600f60fc1b6001600160f81b0319821610156116cd57611684600384612565565b601f60fb1b6001600160f81b0319821610156116ee57611684600484612565565b603f60fa1b6001600160f81b03198216101561170f57611684600584612565565b61171a600684612565565b92505b5082611728816123fb565b935050611640565b50909392505050565b600060046000868560405160200161176d92919091825260601b6bffffffffffffffffffffffff1916602082015260340190565b60408051601f19818403018152918152815160209283012083529082019290925281016000208151606081019092528054829060ff1660018111156117b4576117b4611d3a565b60018111156117c5576117c5611d3a565b81526020016001820180548060200260200160405190810160405280929190818152602001828054801561181857602002820191906000526020600020905b815481526020019060010190808311611804575b5050509183525050600291909101546001600160a01b03908116602090920191909152604082015191925084811691161461188d5760405162461bcd60e51b815260206004820152601560248201527424b73b30b634b2103830bcb6b2b73a103a37b5b2b760591b60448201526064016104e3565b600080825160018111156118a3576118a3611d3a565b036118ce5781602001516000815181106118bf576118bf6123cf565b60200260200101519050611934565b846003111580156118e0575060048511155b6119085781602001516002815181106118fb576118fb6123cf565b6020026020010151611931565b6020820151611918600387612578565b81518110611928576119286123cf565b60200260200101515b90505b82811461197c5760405162461bcd60e51b8152602060048201526016602482015275125b9d985b1a59081c185e5b595b9d08185b5bdd5b9d60521b60448201526064016104e3565b505050505050565b8280548282559060005260206000209081019282156119bf579160200282015b828111156119bf5782518255916020019190600101906119a4565b506119cb9291506119cf565b5090565b5b808211156119cb57600081556001016119d0565b60008083601f8401126119f657600080fd5b5081356001600160401b03811115611a0d57600080fd5b602083019150836020828501011115611a2557600080fd5b9250929050565b80356001600160a01b0381168114611a4357600080fd5b919050565b634e487b7160e01b600052604160045260246000fd5b604051606081016001600160401b0381118282101715611a8057611a80611a48565b60405290565b604051601f8201601f191681016001600160401b0381118282101715611aae57611aae611a48565b604052919050565b60006001600160401b03821115611acf57611acf611a48565b5060051b60200190565b6002811061128157600080fd5b600082601f830112611af757600080fd5b81356020611b0c611b0783611ab6565b611a86565b82815260059290921b84018101918181019086841115611b2b57600080fd5b8286015b84811015611c1c5780356001600160401b0380821115611b4f5760008081fd5b908801906060828b03601f1901811315611b695760008081fd5b611b71611a5e565b87840135611b7e81611ad9565b815260408481013584811115611b945760008081fd5b85019350603f84018d13611ba85760008081fd5b88840135611bb8611b0782611ab6565b81815260059190911b85018201908a8101908f831115611bd85760008081fd5b958301955b82871015611bf65786358252958b0195908b0190611bdd565b848c015250611c089050858401611a2c565b908201528652505050918301918301611b2f565b509695505050505050565b60008060008060608587031215611c3d57600080fd5b84356001600160401b0380821115611c5457600080fd5b611c60888389016119e4565b9096509450849150611c7460208801611a2c565b93506040870135915080821115611c8a57600080fd5b50611c9787828801611ae6565b91505092959194509250565b60008060408385031215611cb657600080fd5b823591506020830135611cc881611ad9565b809150509250929050565b60008060408385031215611ce657600080fd5b82359150611cf660208401611a2c565b90509250929050565b600060208284031215611d1157600080fd5b611d1a82611a2c565b9392505050565b600060208284031215611d3357600080fd5b5035919050565b634e487b7160e01b600052602160045260246000fd5b6002811061128157611281611d3a565b60005b83811015611d7b578181015183820152602001611d63565b50506000910152565b60008151808452611d9c816020860160208601611d60565b601f01601f19169290920160200192915050565b600060038810611dc257611dc2611d3a565b878252611dce87611d50565b86602083015260c06040830152611de860c0830187611d84565b6001600160a01b03958616606084015293909416608082015260a00152949350505050565b60008060208385031215611e2057600080fd5b82356001600160401b0380821115611e3757600080fd5b818501915085601f830112611e4b57600080fd5b813581811115611e5a57600080fd5b8660208260051b8501011115611e6f57600080fd5b60209290920196919550909350505050565b60006020808301818452808551808352604092508286019150828160051b8701018488016000805b84811015611f3157603f198a8503018652825160608086018251611ecc81611d50565b8752828b01518b88019290925281519081905260808701918b019085905b80821015611f0a5782518452928c0192918c019160019190910190611eea565b505050908801516001600160a01b0316948801949094529487019491870191600101611ea9565b50919998505050505050505050565b60008060408385031215611f5357600080fd5b82359150602083013560038110611cc857600080fd5b60408101611f7684611d50565b9281526001600160a01b039190911660209091015290565b60008060408385031215611fa157600080fd5b8235915060208301356001600160401b03811115611fbe57600080fd5b611fca85828601611ae6565b9150509250929050565b80356001600160401b0381168114611a4357600080fd5b60008060008060008060008060e0898b03121561200757600080fd5b88356001600160401b038082111561201e57600080fd5b61202a8c838d016119e4565b909a509850602091508a8201358181111561204457600080fd5b8b01601f81018d1361205557600080fd5b80358281111561206757612067611a48565b612079601f8201601f19168501611a86565b92508083528d8482840101111561208f57600080fd5b80848301858501376000848285010152505080975050506120b260408a01611a2c565b94506120c060608a01611a2c565b93506120ce60808a01611fd4565b92506120dc60a08a01611a2c565b915060c089013590509295985092959890939650565b60208152816020820152818360408301376000818301604090810191909152601f909201601f19160101919050565b60006020828403121561213357600080fd5b5051919050565b60006020828403121561214c57600080fd5b81518015158114611d1a57600080fd5b8183823760009101908152919050565b9283526001600160a01b039190911660208301521515604082015260600190565b60208082526017908201527f496e73756666696369656e74207065726d697373696f6e000000000000000000604082015260600190565b818382376305ccae8d60e31b9101908152600401919050565b600181811c908216806121f157607f821691505b60208210810361221157634e487b7160e01b600052602260045260246000fd5b50919050565b601f82111561079657600081815260208120601f850160051c8101602086101561223e5750805b601f850160051c820191505b8181101561197c5782815560010161224a565b81516001600160401b0381111561227657612276611a48565b61228a8161228484546121dd565b84612217565b602080601f8311600181146122bf57600084156122a75750858301515b600019600386901b1c1916600185901b17855561197c565b600085815260208120601f198616915b828110156122ee578886015182559484019460019091019084016122cf565b508582101561230c5787850151600019600388901b60f8161c191681555b5050505050600190811b01905550565b6000602080835260008454612330816121dd565b80848701526040600180841660008114612351576001811461236b57612399565b60ff1985168984015283151560051b890183019550612399565b896000528660002060005b858110156123915781548b8201860152908301908801612376565b8a0184019650505b509398975050505050505050565b6020808252600e908201526d2237b6b0b4b7102ab735b737bbb760911b604082015260600190565b634e487b7160e01b600052603260045260246000fd5b634e487b7160e01b600052601160045260246000fd5b60006001820161240d5761240d6123e5565b5060010190565b8082028115828204841417610b3157610b316123e5565b634e487b7160e01b600052601260045260246000fd5b6000826124505761245061242b565b500490565b81810381811115610b3157610b316123e5565b86815260c06020820152600061248160c0830188611d84565b6001600160a01b0396871660408401529490951660608201526001600160401b03929092166080830152151560a0909101529392505050565b6000835160206124cd8285838901611d60565b8184019150601760f91b82526001600086546124e8816121dd565b81841680156124fe576001811461251757611f31565b60ff198316878601528115158202870185019350611f31565b896000528560002060005b8381101561253d578154898201880152908601908701612522565b50505094909401909101979650505050505050565b602081526000611d1a6020830184611d84565b80820180821115610b3157610b316123e5565b6000826125875761258761242b565b50069056fea26469706673582212204825ff54c883de7ed853a7bbdf238beb0eda1aac7a87d3facdf9f7ba0dee7e2764736f6c63430008120033",
  "linkReferences": {},
  "deployedLinkReferences": {}
}